{
  "contractName": "NetflixSubscription",
  "abi": [
    {
      "inputs": [],
      "stateMutability": "nonpayable",
      "type": "constructor"
    },
    {
      "anonymous": false,
      "inputs": [
        {
          "indexed": true,
          "internalType": "address",
          "name": "subscriber",
          "type": "address"
        }
      ],
      "name": "AlreadySubscribed",
      "type": "event"
    },
    {
      "anonymous": false,
      "inputs": [
        {
          "indexed": true,
          "internalType": "address",
          "name": "subscriber",
          "type": "address"
        },
        {
          "indexed": false,
          "internalType": "uint256",
          "name": "planIndex",
          "type": "uint256"
        },
        {
          "indexed": false,
          "internalType": "uint256",
          "name": "amount",
          "type": "uint256"
        }
      ],
      "name": "SubscriptionPurchased",
      "type": "event"
    },
    {
      "anonymous": false,
      "inputs": [
        {
          "indexed": true,
          "internalType": "address",
          "name": "owner",
          "type": "address"
        },
        {
          "indexed": false,
          "internalType": "uint256",
          "name": "amount",
          "type": "uint256"
        }
      ],
      "name": "SuccessfullWithdrawal",
      "type": "event"
    },
    {
      "inputs": [],
      "name": "owner",
      "outputs": [
        {
          "internalType": "address",
          "name": "",
          "type": "address"
        }
      ],
      "stateMutability": "view",
      "type": "function",
      "constant": true
    },
    {
      "inputs": [
        {
          "internalType": "uint256",
          "name": "",
          "type": "uint256"
        }
      ],
      "name": "plans",
      "outputs": [
        {
          "internalType": "uint256",
          "name": "durationInMonths",
          "type": "uint256"
        },
        {
          "internalType": "uint256",
          "name": "price",
          "type": "uint256"
        }
      ],
      "stateMutability": "view",
      "type": "function",
      "constant": true
    },
    {
      "inputs": [
        {
          "internalType": "address",
          "name": "",
          "type": "address"
        }
      ],
      "name": "subscribers",
      "outputs": [
        {
          "internalType": "bool",
          "name": "",
          "type": "bool"
        }
      ],
      "stateMutability": "view",
      "type": "function",
      "constant": true
    },
    {
      "inputs": [],
      "name": "totalSubscribers",
      "outputs": [
        {
          "internalType": "uint256",
          "name": "",
          "type": "uint256"
        }
      ],
      "stateMutability": "view",
      "type": "function",
      "constant": true
    },
    {
      "inputs": [
        {
          "internalType": "uint256",
          "name": "planIndex",
          "type": "uint256"
        }
      ],
      "name": "subscribe",
      "outputs": [],
      "stateMutability": "payable",
      "type": "function",
      "payable": true
    },
    {
      "inputs": [
        {
          "internalType": "uint256",
          "name": "_amount",
          "type": "uint256"
        }
      ],
      "name": "withdrawFunds",
      "outputs": [],
      "stateMutability": "nonpayable",
      "type": "function"
    }
  ],
  "bytecode": "0x608060405234801561001057600080fd5b50600080546001600160a01b03191633178155604080518082018252600180825267016345785d8a00006020808401918252600380548085018255818852945160029586027fc2575a0e9e593c00f959f8c92f12db2869c3395a3b0502d05e2516446f71f85b8181019290925593517fc2575a0e9e593c00f959f8c92f12db2869c3395a3b0502d05e2516446f71f85c94850155865180880188528681526702c68af0bb14000081850190815283548088018555848b52915191880280840192909255519085015586518088018852828152670429d069189e000081850190815283548088018555848b52915191880280840192909255519085015586518088018852600681526706f05b59d3b2000081850190815283548088018555848b52915191880280840192909255519085015586518088018852600c8152670c7d713b49da000081850190815283548088018555848b52915191880280840192909255519085015586518088018852601881526716345785d8a0000081850190815283548088018555848b5291519188028084019290925551908501558651808801909752602487526722b1c8c1227a0000928701928352815494850182559652935191909202938401559051910155610558806101ed6000396000f3fe6080604052600436106100555760003560e01c80630f574ba71461005a578063155dd5ee1461006f57806315e2475f1461008f5780635745ae28146100b85780638da5cb5b146100f8578063b162061614610130575b600080fd5b61006d61006836600461049c565b610165565b005b34801561007b57600080fd5b5061006d61008a36600461049c565b610344565b34801561009b57600080fd5b506100a560015481565b6040519081526020015b60405180910390f35b3480156100c457600080fd5b506100e86100d33660046104b5565b60026020526000908152604090205460ff1681565b60405190151581526020016100af565b34801561010457600080fd5b50600054610118906001600160a01b031681565b6040516001600160a01b0390911681526020016100af565b34801561013c57600080fd5b5061015061014b36600461049c565b61046e565b604080519283526020830191909152016100af565b60035481108015610174575060015b6101ba5760405162461bcd60e51b8152602060048201526012602482015271092dcecc2d8d2c840e0d8c2dc40d2dcc8caf60731b60448201526064015b60405180910390fd5b6000600382815481106101cf576101cf6104e5565b600091825260209182902060408051808201909152600290920201805482526001015491810182905291503410156102405760405162461bcd60e51b8152602060048201526014602482015273125b9cdd59999a58da595b9d081c185e5b595b9d60621b60448201526064016101b1565b3360009081526002602052604090205460ff16156102d85760405133907f73a41649a2fc1263bb26765c10dd8833ad96247173abce04caf1acf3a40ad2db90600090a23360009081526002602052604090205460ff16156102d85760405162461bcd60e51b8152602060048201526012602482015271105b1c9958591e481cdd589cd8dc9a58995960721b60448201526064016101b1565b336000908152600260205260408120805460ff19166001908117909155805491610301836104fb565b90915550506040805183815234602082015233917f6d458fa94cc5b30d7877bed127c2029f98bc0cbc4634dc7789b6bc804fbdae03910160405180910390a25050565b6000546001600160a01b031633146103a85760405162461bcd60e51b815260206004820152602160248201527f4f6e6c79206f776e65722063616e2063616c6c20746869732066756e6374696f6044820152603760f91b60648201526084016101b1565b478111156103ef5760405162461bcd60e51b8152602060048201526014602482015273496e73756666696369656e742062616c616e636560601b60448201526064016101b1565b600080546040516001600160a01b039091169183156108fc02918491818181858888f19350505050158015610428573d6000803e3d6000fd5b506000546040518281526001600160a01b03909116907f0d236d3df2fee429396029a90b100ab0c58b2562bcfedc488b72ca21c1e2a3b09060200160405180910390a250565b6003818154811061047e57600080fd5b60009182526020909120600290910201805460019091015490915082565b6000602082840312156104ae57600080fd5b5035919050565b6000602082840312156104c757600080fd5b81356001600160a01b03811681146104de57600080fd5b9392505050565b634e487b7160e01b600052603260045260246000fd5b60006001820161051b57634e487b7160e01b600052601160045260246000fd5b506001019056fea264697066735822122082d0bb75b55213cbb0c3224f56e4bfdfac9e0ec71b7c96e51f96165d6a56726e64736f6c63430008130033",
  "immutableReferences": {},
  "source": "// SPDX-License-Identifier: GPL-3.0\r\npragma solidity ^ 0.8.19;\r\n\r\n\r\ncontract NetflixSubscription {\r\n    address public owner;\r\n    uint256 public totalSubscribers;\r\n    mapping(address => bool) public subscribers;\r\n\r\n    event SubscriptionPurchased(address indexed subscriber, uint256 planIndex, uint256 amount);\r\n    event AlreadySubscribed(address indexed subscriber);\r\n    event SuccessfullWithdrawal(address indexed owner, uint256 amount);\r\n\r\n    struct Plan {\r\n        uint256 durationInMonths;\r\n        uint256 price;\r\n    }\r\n\r\n    Plan[] public plans;\r\n\r\n    constructor() {\r\n    owner = msg.sender;\r\n\r\n    plans.push(Plan(1, 100000000000000000)); \r\n\r\n    plans.push(Plan(2, 200000000000000000)); \r\n\r\n    plans.push(Plan(3, 300000000000000000)); \r\n\r\n    plans.push(Plan(6, 500000000000000000)); \r\n\r\n    plans.push(Plan(12, 900000000000000000)); \r\n\r\n    plans.push(Plan(24, 1600000000000000000)); \r\n\r\n    plans.push(Plan(36, 2500000000000000000)); \r\n}\r\n\r\n\r\n    modifier onlyOwner() {\r\n        require(msg.sender == owner, \"Only owner can call this function\");\r\n        _;\r\n    }\r\n\r\n\r\n\r\n    function subscribe(uint256 planIndex) external payable {\r\n\r\n        require(planIndex < plans.length && planIndex >= 0, \"Invalid plan index\");\r\n        Plan memory selectedPlan = plans[planIndex];\r\n        require(msg.value >= selectedPlan.price, \"Insufficient payment\");\r\n        // require(!subscribers[msg.sender], \"Already subscribed\");\r\n\r\n       \r\n       if (subscribers[msg.sender]) {\r\n        \r\n        emit AlreadySubscribed(msg.sender);\r\n        require(!subscribers[msg.sender], \"Already subscribed\");\r\n    }\r\n\r\n    \r\n    subscribers[msg.sender] = true;   \r\n    totalSubscribers++;\r\n\r\n    \r\n    emit SubscriptionPurchased(msg.sender, planIndex, msg.value);\r\n\r\n    }\r\n\r\n\r\n  function withdrawFunds(uint256 _amount) external onlyOwner {\r\n    require(_amount <= address(this).balance, \"Insufficient balance\");\r\n    payable(owner).transfer(_amount);\r\n    emit SuccessfullWithdrawal(owner, _amount);\r\n}\r\n\r\n\r\n\r\n\r\n\r\n}\r\n",
  "sourcePath": "C:\\Users\\Owner\\Desktop\\Netflix\\contracts\\subscribe.sol",
  "compiler": {
    "name": "solc",
    "version": "0.8.19+commit.7dd6d404.Emscripten.clang"
  },
  "schemaVersion": "3.4.16",
  "updatedAt": "2024-05-02T17:45:59.782Z",
  "networkType": "ethereum",
  "devdoc": {
    "kind": "dev",
    "methods": {},
    "version": 1
  },
  "userdoc": {
    "kind": "user",
    "methods": {},
    "version": 1
  }
}